:100000000CC027C026C025C024C023C023C021C0E7
:1000100020C01FC01EC01DC01CC011241FBECFE5C4
:10002000D2E0DEBFCDBF10E0A0E6B0E0E6ECFBE042
:1000300003C0C89531960D92A03AB107D1F710E0F0
:10004000A0EAB0E001C01D92A83BB107E1F72BD1B7
:10005000B8C5D6CF1F920F920FB60F9211242F93CF
:100060003F934F935F936F937F938F939F93AF9340
:10007000BF93EF93FF938CE791EE9DBD8CBD809174
:10008000AE009091AF0001969093AF008093AE00C8
:100090008C33910509F054C01092AF001092AE005D
:1000A0008091AC009091AD0001969093AD0080934B
:1000B000AC008C339105A1F41092AD001092AC000D
:1000C0008091AA009091AB0001969093AB00809331
:1000D000AA008831910521F41092AB001092AA0079
:1000E0008091A0009091A100009751F58091B000FF
:1000F0009091B100880F991FE82FF92FEE0FFF1F85
:10010000EA57FF4FA82FB92FAA0FBB1FA857BF4F01
:100110002D913C918A569F4FA82FB92F8D919C917C
:100120004091AA005091AB00840F951F68E170E0E8
:100130001FD5482F592F80819181622F732F49D06D
:10014000FF91EF91BF91AF919F918F917F916F91AF
:100150005F914F913F912F910F900FBE0F901F9085
:1001600018951FBC85E08EBD8CE791EE9DBD8CBDC2
:1001700018BE80E889BF089583E389B988E18AB908
:100180000895E82FF92F03C05D9BFECF8CB98191B4
:100190008823D1F7089588BB9698959A8FE798E3BE
:1001A000A1E081509040A040E1F700C00000959888
:1001B00018BA089588BB969A959A8FE798E3A1E0BC
:1001C00081509040A040E1F700C00000959818BA17
:1001D0000895EF92FF920F931F93DF93CF930F92A7
:1001E000CDB7DEB7F82E042F152F81E06983D3DF5A
:1001F0008CE0D1DF8F2DDEDF6981862FDBDF8DE2A2
:10020000D9DF5AE0E52EF12C802F912F6E2D7F2D16
:10021000AFD4082F80919E00860FCCDF80919E0086
:10022000800FC8DF8DE2C6DF8091AC009091AD00F9
:100230006E2D7F2D9DD480919E00860FBBDF809117
:10024000AC009091AD006E2D7F2D92D490919E00C8
:10025000890FB0DF0F90CF91DF911F910F91FF9029
:10026000EF90089581E097DF88E395DF8CE093DFDE
:100270000895823091051CF425E030E002C024E0AE
:1002800030E0281B390B822F932F0895823091057F
:100290001CF428E030E002C026E030E0281B390BD7
:1002A000822F932F08956F927F928F929F92AF9299
:1002B000BF92CF92DF92EF92FF920F931F93CF9353
:1002C000DF931ABA8FEF8BBB87BB81BBCBDFC99B98
:1002D00002C0CA99FCCFC999F0C1C99BFECF8DE07D
:1002E0005ADF85E567DF84E565DF8DE263DF9091A6
:1002F000A20080919E00890F5DDF9091A400809103
:100300009E00890F57DF8DE255DF9091A600809106
:100310009E00890F4FDF9091A80080919E00890F69
:1003200049DF1092B3001092B200C0E0D0E003C0E9
:1003300080E131DF21968091B2009091B30099DF86
:10034000C817D907ACF383C1C899C2C0C89BFECFF8
:10035000E82FF92FEE0FFF1FEE55FF4F208131815F
:100360002F5F3F4F31832083009701F52230310505
:1003700059F48091A4009091A5008430910524F057
:100380001092A5001092A4008091A2009091A30069
:100390008330910559F48091A4009091A500843098
:1003A000910524F01092A5001092A4008091B20053
:1003B0009091B3000097B9F42091A2003091A3006E
:1003C00023303105E9F51092A3001092A20020918C
:1003D000A4003091A5002430310594F11092A500BD
:1003E0001092A4002DC081309105D9F48091A20013
:1003F0009091A3008230910541F48091A4009091E6
:10040000A5008430910551F507C08091A40090911A
:10041000A5008A30910511F51092A5001092A40054
:100420001DC08230910561F48091A6009091A700D3
:100430008630910599F41092A7001092A6000EC084
:100440008330910559F48091A8009091A9008A30D9
:10045000910521F41092A9001092A8008091A200A9
:100460009091A3006AE070E071D32091A4003091D4
:10047000A500280F391F3093AB002093AA0080916C
:10048000A6009091A7006AE070E060D34091A800B8
:100490005091A900480F591F5093AD004093AC00F4
:1004A00085E564E5422F532F94DE8DE074DEEE2463
:1004B000FF2405C080E16FDE0894E11CF11C8091EF
:1004C000B2009091B300D5DEE816F9069CF3C9C0DE
:1004D000C99911C0C99BFECF009709F4C2C001970A
:1004E0009093B3008093B2008130910511F480E1C4
:1004F00052DE80E10FC0CA990FC0CA9BFECF0196A1
:100500009093B3008093B2008230910511F484E19E
:1005100042DE84E140DEA5C0CB99A3C0CB9BFECFD9
:10052000E82FF92FEE0FFF1FEE55FF4F208131818D
:1005300021503040318320830097A1F44FEF2F3FAB
:100540003407E1F5B092A300A092A2002091A4008C
:100550003091A500243031058CF11093A500009353
:10056000A4002CC081309105C9F48091A400909121
:10057000A500AFEF8F3F9A0781F58091A20090917F
:10058000A3008230910529F41093A5000093A400E4
:1005900024C0D093A500C093A4001FC08230910551
:1005A00069F48091A6009091A700BFEF8F3F9B0751
:1005B000A1F4D092A700C092A6000FC0833091058D
:1005C00061F48091A8009091A9002FEF8F3F9207CE
:1005D00021F4D093A900C093A8008091A20090912B
:1005E000A3006AE070E0B2D22091A4003091A5008F
:1005F000280F391F3093AB002093AA008091A600EA
:100600009091A7006AE070E0A1D24091A8005091BB
:10061000A900480F591F5093AD004093AC0085E5E9
:1006200064E5422F532FD5DD8DE0B5DDEE24FF24A8
:1006300005C080E1B0DD0894E11CF11C8091B2009E
:100640009091B30016DEE816F9069CF30AC0C9E0E3
:10065000D0E065E0C62ED12C03E010E052E0A52EDC
:10066000B12C8091B2009091B3008430910509F0D3
:100670006BCE8CE090DD8091A2009091A3006AE0A7
:1006800070E064D22091A4003091A500280F391F9A
:10069000822F932F68E170E06BD29093AB00809330
:1006A000AA008091A6009091A7006AE070E04ED267
:1006B0002091A8003091A9004DC0CA9951C05CDDBD
:1006C00080E690E033C05F9BFECF8CB181935D9B51
:1006D000FECF8CB940E0E83BF407A9F78091B40065
:1006E000982F9053933000F54091B5004033E0F0DF
:1006F0004A33D0F4A091B600A033B0F0AA33A0F4EE
:100700002091B700203380F02A3370F490E06AE043
:1007100070E01CD250E0642F752F605E7140680F4E
:10072000791F6834710534F088E790E02ADDE4EB46
:10073000F0E0C9CF480F591F405152405093AB00D1
:100740004093AA0030E0205132408A2F90E06AE0C6
:1007500070E0FCD1280F391F3093AD002093AC001E
:1007600000DD78948091B0009091B100880F991FBE
:10077000C82FD92FCC0FDD1FCA57DF4FE82FF92F15
:10078000EE0FFF1FE857FF4F8A569F4FA82FB92F34
:100790008D919C912091AA003091AB00820F931F04
:1007A00068E170E0E5D1482F592F8881608111DD23
:1007B00008E110E091E0E92EF12C81E4C82ED12C63
:1007C000B7E1AB2EB12CAAE58A2E912CF3E06F2E67
:1007D000712CC89938C0C89BFECF8091B000909111
:1007E000B10001969093B1008093B00084309105E0
:1007F00021F41092B1001092B0008091B00090915D
:10080000B100880F991FC82FD92FCC0FDD1FCA57F1
:10081000DF4FE82FF92FEE0FFF1FE857FF4F8A56E3
:100820009F4FA82FB92F8D919C912091AA003091B4
:10083000AB00820F931F602F712F9AD1482F592F31
:1008400088816081C6DCCA9945C1CA9BFECFF092FF
:10085000A100E092A0001092B3001092B2008DE0CF
:100860009ADC8091B0009091B100880F991FC82F39
:10087000D92FCC0FDD1FCA57DF4FE82FF92FEE0F0E
:10088000FF1FE857FF4F8A569F4FA82FB92F8D9112
:100890009C912091AA003091AB00820F931F602F92
:1008A000712F66D1482F592F8881608192DC8DE0AD
:1008B00072DCC8E0D0E080E16EDC2197E1F7FCC09B
:1008C000C89966C0C89BFECF82309105BCF4E09108
:1008D000B000F091B100EE0FFF1FE80FF91FEE0F0F
:1008E000FF1FEA57FF4F808191810196918380839A
:1008F0008B359105B1F4D182C08213C0823091054D
:1009000081F4E091B000F091B100EE0FFF1FEA56C4
:10091000FF4F808191810196602F712F29D19183A2
:1009200080838091B0009091B100880F991FC82FEB
:10093000D92FCC0FDD1FCA57DF4FE82FF92FEE0F4D
:10094000FF1FE857FF4F8A569F4FA82FB92F8D9151
:100950009C912091AA003091AB00820F931F602FD1
:10096000712F06D1482F592F8881608132DC8DE0AC
:1009700012DCC0E0D0E003C080E10DDC2196809164
:10098000B2009091B30082DCC817D907ACF394C0D1
:10099000C99913C0C99BFECF009709F48DC0019778
:1009A0009093B3008093B2008130910521F480E1EF
:1009B000F2DB80E1F0DB80E111C0CA9911C0CA9B73
:1009C000FECF01969093B3008093B20082309105E0
:1009D00021F484E1E0DB84E1DEDB84E1DCDB6CC07C
:1009E000CB996AC0CB9BFECF82309105BCF4E091DD
:1009F000B000F091B100EE0FFF1FE80FF91FEE0FEE
:100A0000FF1FEA57FF4F8081918101979183808377
:100A100080349105D9F49182808218C0823091058A
:100A2000A9F4E091B000F091B100EE0FFF1FEA567B
:100A3000FF4F80819181009739F00197602F712FCE
:100A400097D09183808302C0B182A0828091B00050
:100A50009091B100880F991FC82FD92FCC0FDD1F9F
:100A6000CA57DF4FE82FF92FEE0FFF1FE857FF4F50
:100A70008A569F4FA82FB92F8D919C912091AA0043
:100A80003091AB00820F931F602F712F71D0482FD0
:100A9000592F888160819DDB8DE07DDBC0E0D0E057
:100AA00003C080E178DB21968091B2009091B30081
:100AB000EDDBC817D907ACF38091B2009091B30079
:100AC0008330910509F0FCCE1092A1001092A00095
:100AD0008CE061DBCB997DCECB9BFECF8091B000CB
:100AE0009091B10001979093B1008093B000BFEF57
:100AF0008F3F9B0721F47092B1006092B00080910B
:100B0000B0009091B100880F991FC82FD92FCC0F3A
:100B1000DD1FCA57DF4FE82FF92FEE0FFF1FE857F1
:100B2000FF4F8A569F4FA82FB92F8D919C912091EE
:100B3000AA003091AB00820F931F602F712F18D045
:100B4000482F592F8881608144DB43CE55270024EC
:100B500080FF02C0060E571F660F771F61157105D3
:100B600021F096958795009799F7952F802D0895F8
:100B700097FB092E07260AD077FD04D00CD006D0AB
:100B800000201AF4709561957F4F0895F6F79095BF
:100B900081959F4F0895AA1BBB1B51E107C0AA1F57
:100BA000BB1FA617B70710F0A61BB70B881F991F0E
:100BB0005A95A9F780959095682F792F8A2F9B2FAA
:060BC0000895F894FFCF38
:100BC600496E707574205554432074696D652028EC
:100BD60048484D4D293A20000D0A54727920616724
:100BE60061696E3A20004D0041004D004F004B00F8
:100BF6004100430045000B000300020001003000E5
:00000001FF
