:1000000010C02AC029C028C027C026C025C025C0CE
:1000100023C022C021C020C01FC01EC01DC01CC0E4
:100020001BC011241FBECFE5D2E0DEBFCDBF10E064
:10003000A0E6B0E0E2E5FBE002C005900D92AC3B2B
:10004000B107D9F710E0ACEBB0E001C01D92AC3CB9
:10005000B107E1F73DD47BC5D3CF1F920F920FB606
:100060000F9211242F933F934F935F936F937F933E
:100070008F939F93AF93BF93EF93FF9388EF82BFCC
:100080008091C0009091C10001969093C10080932F
:10009000C0008091C0009091C10023E0883E92078B
:1000A00069F41092C1001092C0008091C7008823AB
:1000B00029F08091C4008F5F8093C4008091C700B5
:1000C0008823E1F08091C4008C33C1F41092C40005
:1000D0008091C3008F5F8093C3008091C3008C33F5
:1000E00069F41092C3008091C2008F5F8093C200B8
:1000F0008091C200883111F41092C2001092C800A1
:100100008091C0009091C10064E170E0F9D4009743
:10011000C1F550E040E0EFE67FE56FE3442321F4D2
:1001200065BB80E090E006C0413011F475BBF9CFAB
:10013000E5BBF7CF23B330E0082E02C035952795F5
:100140000A94E2F720FD09C0252F280F2093BB0059
:100150002091C8002F5F2093C8000196843091053C
:1001600049F74F5F5C5F4330C9F68091C80081302A
:1001700019F48093C60005C08CE08093BB001092F8
:10018000C6008091C0009091C1002AE030E0B90122
:10019000B7D4009781F48FEE88BB8091C700882385
:1001A00039F0E091C500F0E0EF54FF4F818168C065
:1001B000E091C50061C08091C0009091C100B9017B
:1001C0009FD482309105B1F487EF88BB8091C20043
:1001D000E091C500F0E0E454FF4F408190E0840FCF
:1001E000911D68E170E08CD4B9018AD46F547F4FBF
:1001F000FB0145C08091C0009091C100B90180D43D
:1002000084309105C1F48BEF88BB8091C200E091EE
:10021000C500F0E0E454FF4F408190E0840F911D51
:1002200068E170E06DD4B9016BD48F549F4FFC012D
:100230008081806825C08091C0009091C100B90183
:100240005FD48630910541F48DEF88BB8091C30067
:100250006AE04AD4E82F10C08091C0009091C1009C
:10026000B9014ED48830910561F48EEF88BB80913E
:10027000C3006AE039D4E92FF0E0EF54FF4F8081EA
:100280008BBBFF91EF91BF91AF919F918F917F9128
:100290006F915F914F913F912F910F900FBE0F90F3
:1002A0001F9018955D9BFECF8CB90895CF93DF9377
:1002B000EC0101C0F7DF89918823E1F7DF91CF914D
:1002C0000895AF92BF92CF92DF92EF92FF920F9379
:1002D0001F93DF93CF930F92CDB7DEB780E690E008
:1002E00043C05F9BFECFFCB08F2DDCDF01E010E050
:1002F0005F9BFECF8CB1F6018083982F9053011540
:10030000110519F4933018F403C0963008F0EE2468
:10031000C9DFF6019081990F892F880F880F890F07
:10032000805E80835F9BFECF8CB1982F90539A3074
:1003300008F0EE249983B6DFF60180819981890F58
:1003400081936F010130110561F69091CA009831D7
:1003500048F48091CB008C3328F4FF2DFA3311F44C
:10036000EE2061F489E790E0A1DF9AECC92E90E0DD
:10037000D92EEE24E39400E010E0BACF9093C200AF
:100380008093C30081E08093C7001092C100109257
:10039000C0003CEBA32E30E0B32E21E3F22E08E1A7
:1003A00010E086E890E082DF8FECE82EEF0C8F2DD6
:1003B00079DF8FE890E07ADF5F9BFECF8CB180938E
:1003C000CA0070DFC090CA009C2D990F892F880F3A
:1003D000880F890F805E8093CA005F9BFECFDCB0E0
:1003E0008D2D60DF8D2D80538A3028F49C2D905305
:1003F00081E0933008F080E02091CA002D0D205359
:100400002093CA00283128F5813019F58091C20067
:10041000A801481B5109CA01820F911DB80170D370
:10042000F50181935F01E092C500F394FF2DF53350
:1004300009F0B7CF8CE990E039DF0F90CF91DF91D1
:100440001F910F91FF90EF90DF90CF90BF90AF90F2
:10045000089583EA90E0AFCF0F931F931092C600E8
:100460008091C6008130E1F78091BB00882341F084
:100470008091BB00843021F08091BB00873081F7F0
:1004800081E08093C9008091BB00882311F48AE049
:1004900005C08091BB00843021F484E18093C200C8
:1004A00006C08091BB00873011F41092C2001092F8
:1004B000C9008CE08093BB008091C6008823E1F7DF
:1004C0008091C900882379F58091C6008130A1F41C
:1004D0008091C200843181F48091BB00882311F1A6
:1004E0008091BB008430F1F08091BB008730D1F067
:1004F0008091BB008830B1F08091C600813021F737
:100500008091C200843101F38091BB008330E1F21D
:100510008091BB008B30C1F29091BB0081E09C3098
:1005200011F4D2CF81E08093C9008091BB00882371
:1005300021F48091C2008F5F46C08091BB00813062
:1005400021F48091C2008C5F3EC08091BB0082305C
:1005500021F48091C200895F36C08091BB00843055
:1005600021F48091C2008E5F2EC08091BB00853047
:1005700021F48091C2008B5F26C08091BB00863041
:1005800021F48091C200885F1EC08091BB0087303B
:1005900019F48091C20017C08091BB00883021F40B
:1005A0008091C2008D5F0FC08091BB00893021F423
:1005B0008091C2008A5F07C08091BB008A3029F415
:1005C0008091C200875F8093C2001092C9008CE0C6
:1005D0008093BB008091C6008823E1F78091C90019
:1005E0001EC09091C6009130E1F79091BB00992315
:1005F000A1F09091BB00913081F09091BB009430BC
:1006000061F09091BB00953041F09091BB00973024
:1006100021F09091BB00983011F481E002C0882352
:1006200001F38093C9008091BB00882311F48AE014
:100630001EC08091BB00813011F488E218C0809107
:10064000BB00843011F484E112C08091BB0085307E
:1006500011F482E30CC08091BB00873019F4109232
:10066000C30007C08091BB00883019F48EE18093ED
:10067000C3001092C9008CE08093BB008091C6003B
:100680008823E1F78091C90013C09091C600913092
:10069000E1F79091BB00933059F09091BB009B30F3
:1006A00039F09091BB0081E09C3021F480E0EDCFE7
:1006B000882359F38093C9008091BB00882321F4DB
:1006C0008091C3008F5F46C08091BB00813021F4D0
:1006D0008091C3008C5F3EC08091BB00823021F4CA
:1006E0008091C300895F36C08091BB00843021F4C3
:1006F0008091C3008E5F2EC08091BB00853021F4B5
:100700008091C3008B5F26C08091BB00863021F4AE
:100710008091C300885F1EC08091BB00873019F4B0
:100720008091C30017C08091BB00883021F4809174
:10073000C3008D5F0FC08091BB00893021F4809190
:10074000C3008A5F07C08091BB008A3029F4809182
:10075000C300875F8093C30081E08093C70010923D
:10076000C1001092C0008CE08093BB008091C60055
:100770008823E1F74091CA00ECEBF0E010E00CE0D8
:1007800028E130E08091C6008130E1F78091BB0024
:10079000882341F08091BB00843021F08091BB0020
:1007A000873081F78091BB00882351F08091BB0096
:1007B000843041F08091BB00873029F440E003C0D1
:1007C0004AE001C044E10093BB008091C600882349
:1007D000E1F78091C600813091F4443181F4809139
:1007E000BB008823F1F08091BB008430D1F0809170
:1007F000BB008730B1F08091BB00883091F08091D0
:10080000C600813031F7443121F38091BB00833041
:1008100001F38091BB008B30E1F28091BB008C3002
:10082000C1F28091BB00882311F44F5F33C08091E7
:10083000BB00813011F44C5F2DC08091BB00823031
:1008400011F4495F27C08091BB00843011F44E5FE2
:1008500021C08091BB00853011F44B5F1BC080919B
:10086000BB00863011F4485F15C08091BB00873013
:1008700089F08091BB00883011F44D5F0BC08091EE
:10088000BB00893011F44A5F05C08091BB008A30FB
:1008900009F4475F8091C200B901681B7109CB015F
:1008A000840F911DB9012CD181930093BB0010934B
:1008B000C5008091C6008823E1F71F5F143009F05E
:1008C00061CF1092C9004093CA001F910F91089503
:1008D0001F9380E784BB8FE085BB8FEF87BB8ABB0C
:1008E00013BE13BE88EF82BF88B7826088BF89B706
:1008F000826089BF83B7856083BF84E389B986E856
:1009000080BD88E18AB978948091C6008130E1F792
:100910008091BB00833021F08091BB008B30A1F728
:1009200081E08093C9008091BB00833011F4C9DC61
:1009300005C08091BB008B3009F48EDD4091CA0068
:100940001CE028E130E08091C6008130E1F7809121
:10095000BB00833081F08091BB008B3061F08091CF
:10096000BB00882341F08091BB00843021F080914E
:10097000BB00873041F78091BB00833051F49091E8
:10098000C500992319F08091C50081508093C5005E
:10099000A6C08091BB008B3059F48091C500833094
:1009A00019F41092C5009BC08091C5008F5FEECFF7
:1009B0008091BB00882349F08091BB00843029F0EE
:1009C0008091BB00873009F08AC08091BB008823EA
:1009D00051F08091BB00843041F08091BB008730A2
:1009E00029F440E003C04AE001C044E11093BB0099
:1009F0008091C6008823E1F78091C600813091F490
:100A0000443181F48091BB008823F1F08091BB00D8
:100A10008430D1F08091BB008730B1F08091BB0071
:100A2000883091F08091C600813031F7443121F354
:100A30008091BB00833001F38091BB008B30E1F2E9
:100A40008091BB008C30C1F28091BB00882311F4EF
:100A50004F5F33C08091BB00813011F44C5F2DC0DB
:100A60008091BB00823011F4495F27C08091BB00A8
:100A7000843011F44E5F21C08091BB00853011F4A9
:100A80004B5F1BC08091BB00863011F4485F15C0DE
:100A90008091BB00873089F08091BB00883011F4D1
:100AA0004D5F0BC08091BB00893011F44A5F05C0D7
:100AB0008091BB008A3009F4475FE091C5008091C6
:100AC000C200F0E0E454FF4FB901681B7109CB018B
:100AD000840F911DB90114D080831093BB008091C5
:100AE000C6008823E1F72FCF991B79E004C0991F36
:100AF000961708F0961B881F7A95C9F78095089578
:100B000097FB092E07260AD077FD04D00CD006D01B
:100B100000201AF4709561957F4F0895F6F790952F
:100B200081959F4F0895AA1BBB1B51E107C0AA1FC7
:100B3000BB1FA617B70710F0A61BB70B881F991F7E
:100B40005A95A9F780959095BC01CD010895F89428
:020B5000FFCFD5
:100B5200496E707574205554432074696D65202860
:100B620048483A4D4D293A20000D54727920616768
:100B720061696E3A20000A0D496E7075742000207A
:100B82007A6F6E6520284848293A20000D446F6E1E
:100B92006521000D0A54727920616761696E3A20FD
:0C0BA200003F065B4F666D7D077F6F0C07
:00000001FF
