:100000000CC027C026C025C024C023C023C021C0E7
:1000100020C01FC01EC01DC01CC011241FBECFE5C4
:10002000D2E0DEBFCDBF10E0A0E6B0E0EAE3FDE045
:1000300003C0C89531960D92AE3BB107D1F710E0E1
:10004000AEEBB0E001C01D92AE3DB107E1F790D23A
:1000500072C6D6CF1F920F920FB60F9211242F9314
:100060003F934F935F936F937F938F939F93AF9340
:10007000BF93EF93FF938CE791EE9DBD8CBD809174
:10008000C4009091C50001969093C5008093C40070
:100090008C33910509F054C01092C5001092C40031
:1000A0008091C2009091C30001969093C300809309
:1000B000C2008C339105A1F41092C3001092C200CB
:1000C0008091C0009091C10001969093C1008093EF
:1000D000C0008831910521F41092C1001092C00037
:1000E0008091BE009091BF00009751F58091C600AD
:1000F0009091C700880F991FE82FF92FEE0FFF1F6F
:10010000E555FF4FA82FB92FAA0FBB1FA355BF4F0F
:100110002D913C918A529F4FA82FB92F8D919C9180
:100120004091C0005091C100840F951F68E170E0BC
:10013000D9D5482F592F80819181622F732F4AD0B2
:10014000FF91EF91BF91AF919F918F917F916F91AF
:100150005F914F913F912F910F900FBE0F901F9085
:1001600018951FBC85E08EBD8CE791EE9DBD8CBDC2
:1001700018BE80E889BF7894089583E389B988E13F
:100180008AB90895E82FF92F03C05D9BFECF8CB983
:1001900081918823D1F7089588BB9698959A8FE727
:1001A00098E3A1E081509040A040E1F700C000003A
:1001B000959818BA089588BB969A959A8FE798E310
:1001C000A1E081509040A040E1F700C00000959868
:1001D00018BA0895EF92FF920F931F93DF93CF9376
:1001E0000F92CDB7DEB7F82E042F152F81E069836B
:1001F000D3DF8CE0D1DF8F2DDEDF6981862FDBDF5F
:100200008DE2D9DF5AE0E52EF12C802F912F6E2D53
:100210007F2D68D5082F8091BB00860FCCDF8091A1
:10022000BB00800FC8DF8DE2C6DF8091C2009091D5
:10023000C3006E2D7F2D56D58091BB00860FBBDF8E
:100240008091C2009091C3006E2D7F2D4BD590916F
:10025000BB00890FB0DF0F90CF91DF911F910F91FD
:10026000FF90EF90089581E097DF88E395DF8CE0C1
:1002700093DF0895823091051CF425E030E002C040
:1002800024E030E0281B390B822F932F0895823011
:1002900091051CF428E030E002C026E030E0281B85
:1002A000390B822F932F0895AF92BF92CF92DF9296
:1002B000EF92FF920F931F93CF93DF9381E090E033
:1002C0009093BF008093BE001092C9001092C800A6
:1002D0008DE062DF8091C6009091C700880F991F62
:1002E000C82FD92FCC0FDD1FC555DF4FE82FF92FB1
:1002F000EE0FFF1FE355FF4F8A529F4FA82FB92FD4
:100300008D919C912091C0003091C100820F931F6C
:1003100068E170E0E7D4482F592F888160815ADF67
:100320008DE03ADFC8E0D0E080E136DF2197E1F7E9
:10033000FDC0C89966C0C89BFECF82309105BCF451
:10034000E091C600F091C700EE0FFF1FE80FF91F04
:10035000EE0FFF1FE555FF4F80819181019691833C
:1003600080838B359105B1F4F182E08213C0823035
:10037000910581F4E091C600F091C700EE0FFF1FD8
:10038000EA52FF4F808191810196602F712FAAD48C
:10039000918380838091C6009091C700880F991F38
:1003A000C82FD92FCC0FDD1FC555DF4FE82FF92FF0
:1003B000EE0FFF1FE355FF4F8A529F4FA82FB92F13
:1003C0008D919C912091C0003091C100820F931FAC
:1003D000602F712F87D4482F592F88816081FADED2
:1003E0008DE0DADEC0E0D0E003C080E1D5DE21960A
:1003F0008091C8009091C9004ADFC817D907ACF3B3
:10040000A0C0C99913C0C99BFECF009709F499C039
:1004100001979093C9008093C8008130910521F421
:1004200080E1BADE80E1B8DE80E111C0CA9911C076
:10043000CA9BFECF01969093C9008093C80082307A
:10044000910521F484E1A8DE84E1A6DE84E1A4DE46
:1004500078C0CB9976C0CB9BFECF82309105BCF49F
:10046000E091C600F091C700EE0FFF1FE80FF91FE3
:10047000EE0FFF1FE555FF4F80819181019791831A
:10048000808380349105D9F4B182A08218C0823073
:100490009105A9F4E091C600F091C700EE0FFF1F8F
:1004A000EA52FF4F80819181009739F00197602FC8
:1004B000712F18D49183808302C0D182C082809131
:1004C000C6009091C700880F991FC82FD92FCC0F55
:1004D000DD1FC555DF4FE82FF92FEE0FFF1FE35546
:1004E000FF4F8A529F4FA82FB92F8D919C91209139
:1004F000C0003091C100820F931F602F712FF2D383
:10050000482F592F8881608165DE8DE045DEC0E08F
:10051000D0E003C080E140DE21968091C800909138
:10052000C900B5DEC817D907ACF30BC008E110E06D
:10053000E1E4EE2EF12C77E1C72ED12C6AE5A62E50
:10054000B12C8091C8009091C9008330910509F0C9
:10055000F0CE1092BF001092BE00DF91CF911F919C
:100560000F91FF90EF90DF90CF90BF90AF900895E4
:10057000AF92BF92CF92DF92EF92FF920F931F93B1
:10058000CF93DF931ABA8FEF8BBB87BB81BB6BDE38
:10059000C99B02C0CA99FCCFC99904C2C99BFECFAE
:1005A0008DE0FADD88E507DE88E505DE8DE203DE15
:1005B0009091CA008091BB00890FFDDD9091CC0025
:1005C0008091BB00890FF7DD8DE2F5DD9091CE00C3
:1005D0008091BB00890FEFDD9091D0008091BB002E
:1005E000890FE9DD1092C9001092C800C0E0D0E088
:1005F00003C080E1D1DD21968091C8009091C900AF
:1006000039DEC817D907ACF383C1C899C2C0C89BEB
:10061000FECFE82FF92FEE0FFF1FE653FF4F20818B
:1006200031812F5F3F4F31832083009701F52230C6
:10063000310559F48091CC009091CD008430910522
:1006400024F01092CD001092CC008091CA009091BD
:10065000CB008330910559F48091CC009091CD006E
:100660008430910524F01092CD001092CC0080913E
:10067000C8009091C9000097B9F42091CA00309148
:10068000CB0023303105E9F51092CB001092CA005F
:100690002091CC003091CD002430310594F110929E
:1006A000CD001092CC002DC081309105D9F48091FD
:1006B000CA009091CB008230910541F48091CC002A
:1006C0009091CD008430910551F507C08091CC0008
:1006D0009091CD008A30910511F51092CD001092C5
:1006E000CC001DC08230910561F48091CE009091C4
:1006F000CF008630910599F41092CF001092CE0071
:100700000EC08330910559F48091D0009091D100B2
:100710008A30910521F41092D1001092D00080917E
:10072000CA009091CB006AE070E0CAD22091CC0060
:100730003091CD00280F391F3093C1002093C000A5
:100740008091CE009091CF006AE070E0B9D24091E4
:10075000D0005091D100480F591F5093C3004093CF
:10076000C20088E568E5422F532F34DD8DE014DDAB
:10077000EE24FF2405C080E10FDD0894E11CF11C8C
:100780008091C8009091C90075DDE816F9069CF3C8
:10079000C9C0C99911C0C99BFECF009709F4C2C056
:1007A00001979093C9008093C8008130910511F49E
:1007B00080E1F2DC80E10FC0CA990FC0CA9BFECF76
:1007C00001969093C9008093C8008230910511F47E
:1007D00084E1E2DC84E1E0DCA5C0CB99A3C0CB9B43
:1007E000FECFE82FF92FEE0FFF1FE653FF4F2081BA
:1007F000318121503040318320830097A1F44FEFA5
:100800002F3F3407E1F5B092CB00A092CA002091AF
:10081000CC003091CD00243031058CF11093CD0007
:100820000093CC002CC081309105C9F48091CC009C
:100830009091CD006FEF8F3F960781F58091CA00B0
:100840009091CB008230910529F41093CD00009354
:10085000CC0024C0D093CD00C093CC001FC0823008
:10086000910569F48091CE009091CF007FEF8F3F8A
:100870009707A1F4D092CF00C092CE000FC0833072
:10088000910561F48091D0009091D100AFEF8F3F3E
:100890009A0721F4D093D100C093D0008091CA0070
:1008A0009091CB006AE070E00BD22091CC003091A7
:1008B000CD00280F391F3093C1002093C0008091D4
:1008C000CE009091CF006AE070E0FAD14091D00064
:1008D0005091D100480F591F5093C3004093C2005C
:1008E00088E568E5422F532F75DC8DE055DCEE245A
:1008F000FF2405C080E150DC0894E11CF11C8091CC
:10090000C8009091C900B6DCE816F9069CF30AC04D
:10091000C9E0D0E0E5E0CE2ED12C03E010E072E09B
:10092000A72EB12C8091C8009091C9008430910508
:1009300009F06BCE8CE030DC8091CA009091CB0046
:100940006AE070E0BDD12091CC003091CD00280F3D
:10095000391F822F932F68E170E0C4D19093C100BA
:100960008093C0008091CE009091CF006AE070E04B
:10097000A7D12091D0003091D100280F391F30939A
:10098000C3002093C200C4E0D0E08EDC8091C6009A
:100990009091C70001969093C7008093C60021975D
:1009A000A1F7F3C0CA99F2C0E8DB80E690E050C03E
:1009B0008230910531F45F9BFECF0CB15D9BFECF81
:1009C0000CB95F9BFECF2CB121935D9BFECF2CB960
:1009D00001968430910561F78091D200982F905351
:1009E0009330A0F52091D300203380F12A3370F5A5
:1009F000B091D400B03350F1BA3340F5A091D50096
:100A0000A03320F1AA3310F590E06AE070E058D1ED
:100A1000E82FF92F30E0422F532F405E5140480F0E
:100A2000591F4834510594F48B2F90E06AE070E030
:100A300047D16A2F70E0462F572F405E5140480F34
:100A4000591F4C36510514F40A3341F08BE790E0FE
:100A500099DBE2EDF0E080E090E0B3CF2E0F3F1F96
:100A6000205132403093C1002093C000860F971F61
:100A7000805192409093C3008093C20006ED10E035
:100A8000CBEAD0E061E3C62E58E0E52E5EEFF52E0E
:100A900048E1A42EB12C89E890E074DB5D9BFECF89
:100AA000CCB882E990E06EDB5F9BFECF8CB188838F
:100AB00019825D9BFECF8CB95F9BFECF8CB18A8380
:100AC0001B825D9BFECF8CB95F9BFECF6CB15D9BA3
:100AD000FECF6CB95F9BFECF2CB1822F90E05D9B67
:100AE000FECF2CB95F9BFECF4CB1242F30E05D9B35
:100AF000FECF4CB948815981415450404A3151058B
:100B000020F54A815B8141345105FCF04B3551059C
:100B1000E4F46A33D1F480339105BCF08A33910553
:100B2000A4F4203331058CF02A33310574F46AE0E3
:100B300070E0C6D0482F592F822F932F805E9140AE
:100B4000840F951F883491051CF08BE790E0ABCFA4
:100B50008091C0009091C100EE2DFF2DE81BF90B94
:100B60008E2F9F2F840F951F820F931F6A2D7B2D31
:100B7000B9D0A02FB12F8D939D930A2F1B2F2496B0
:100B8000C394BC2DB53309F086CFEBDA1092C700C1
:100B90001092C6008091D6009091D7002091C0009D
:100BA0003091C100820F931F68E170E09BD0482F05
:100BB000592F8091AB006091AD000CDB08E110E093
:100BC00033E0E32EF12CC89938C0C89BFECF80914A
:100BD000C6009091C70001969093C7008093C6000D
:100BE0008430910521F41092C7001092C6008091C4
:100BF000C6009091C700880F991FC82FD92FCC0F1E
:100C0000DD1FC555DF4FE82FF92FEE0FFF1FE3550E
:100C1000FF4F8A529F4FA82FB92F8D919C91209101
:100C2000C0003091C100820F931F602F712F5AD0E6
:100C3000482F592F88816081CDDACA9905C0CA9B97
:100C4000FECF32DB8CE0A8DACB99BDCFCB9BFECFB9
:100C50008091C6009091C70001979093C700809340
:100C6000C600BFEF8F3F9B0721F4F092C700E092D0
:100C7000C6008091C6009091C700880F991FC82FA9
:100C8000D92FCC0FDD1FC555DF4FE82FF92FEE0F01
:100C9000FF1FE355FF4F8A529F4FA82FB92F8D9109
:100CA0009C912091C0003091C100820F931F602F52
:100CB000712F18D0482F592F888160818BDA83CF0C
:100CC0005527002480FF02C0060E571F660F771FAE
:100CD0006115710521F096958795009799F7952FE5
:100CE000802D089597FB092E07260AD077FD04D0A2
:100CF0000CD006D000201AF4709561957F4F0895AE
:100D0000F6F7909581959F4F0895AA1BBB1B51E163
:100D100007C0AA1FBB1FA617B70710F0A61BB70B6B
:100D2000881F991F5A95A9F780959095682F792F5C
:0A0D30008A2F9B2F0895F894FFCF3F
:100D3A00496E7075742073657475702074696D6579
:100D4A00202848483A4D4D293A20000D0A54727914
:100D5A0020616761696E3A20000A0D496E707574E8
:100D6A002000206E616D6520616E642074696D6576
:100D7A0020284E4E3A4848293A2000410041004274
:0E0D8A000042004300430044004400300000DB
:00000001FF
